{
  "contractName": "ChickBoom",
  "abi": [
    {
      "inputs": [
        {
          "internalType": "uint32",
          "name": "new_tickets_count",
          "type": "uint32"
        },
        {
          "internalType": "uint256",
          "name": "new_ticket_price",
          "type": "uint256"
        }
      ],
      "stateMutability": "nonpayable",
      "type": "constructor"
    },
    {
      "anonymous": false,
      "inputs": [
        {
          "indexed": true,
          "internalType": "address",
          "name": "winner",
          "type": "address"
        },
        {
          "indexed": false,
          "internalType": "uint256",
          "name": "round",
          "type": "uint256"
        },
        {
          "indexed": false,
          "internalType": "uint256",
          "name": "cush",
          "type": "uint256"
        }
      ],
      "name": "WinEvent",
      "type": "event"
    },
    {
      "stateMutability": "payable",
      "type": "fallback"
    },
    {
      "inputs": [],
      "name": "start_selling",
      "outputs": [],
      "stateMutability": "nonpayable",
      "type": "function"
    },
    {
      "inputs": [],
      "name": "buy_ticket",
      "outputs": [],
      "stateMutability": "payable",
      "type": "function"
    },
    {
      "inputs": [],
      "name": "reward",
      "outputs": [],
      "stateMutability": "payable",
      "type": "function"
    },
    {
      "inputs": [],
      "name": "lets_win",
      "outputs": [],
      "stateMutability": "nonpayable",
      "type": "function"
    },
    {
      "inputs": [
        {
          "internalType": "uint256",
          "name": "_round",
          "type": "uint256"
        }
      ],
      "name": "get_cush",
      "outputs": [],
      "stateMutability": "payable",
      "type": "function"
    },
    {
      "inputs": [],
      "name": "get_lottery_state",
      "outputs": [
        {
          "internalType": "enum ChickBoom.State",
          "name": "",
          "type": "uint8"
        }
      ],
      "stateMutability": "view",
      "type": "function"
    },
    {
      "inputs": [],
      "name": "get_ticket_price",
      "outputs": [
        {
          "internalType": "uint256",
          "name": "",
          "type": "uint256"
        }
      ],
      "stateMutability": "view",
      "type": "function"
    },
    {
      "inputs": [],
      "name": "get_sold_tickets",
      "outputs": [
        {
          "internalType": "uint32",
          "name": "",
          "type": "uint32"
        }
      ],
      "stateMutability": "view",
      "type": "function"
    },
    {
      "inputs": [],
      "name": "get_tickets_count",
      "outputs": [
        {
          "internalType": "uint32",
          "name": "",
          "type": "uint32"
        }
      ],
      "stateMutability": "view",
      "type": "function"
    },
    {
      "inputs": [],
      "name": "get_owner",
      "outputs": [
        {
          "internalType": "address",
          "name": "",
          "type": "address"
        }
      ],
      "stateMutability": "view",
      "type": "function"
    },
    {
      "inputs": [],
      "name": "get_round",
      "outputs": [
        {
          "internalType": "uint256",
          "name": "",
          "type": "uint256"
        }
      ],
      "stateMutability": "view",
      "type": "function"
    }
  ],
  "bytecode": "0x60806040526000600260046101000a81548163ffffffff021916908363ffffffff16021790555060006003556000600460006101000a81548160ff0219169083600181111561004a57fe5b021790555034801561005b57600080fd5b5060405161128f38038061128f8339818101604052604081101561007e57600080fd5b810190808051906020019092919080519060200190929190505050336000806101000a81548173ffffffffffffffffffffffffffffffffffffffff021916908373ffffffffffffffffffffffffffffffffffffffff16021790555081600260006101000a81548163ffffffff021916908363ffffffff16021790555080600181905550505061117d806101126000396000f3fe6080604052600436106100a05760003560e01c8063686417d311610064578063686417d31461018b57806388e09ec6146101955780638c0b3fad146101c3578063b9802e3e146101fa578063eb8e966814610225578063fa616f6c14610250576100a1565b80630ac298dc146100a3578063228cb733146100fa5780632b7d117a146101045780633c41f7a41461011b5780634e52863214610152576100a1565b5b005b3480156100af57600080fd5b506100b8610267565b604051808273ffffffffffffffffffffffffffffffffffffffff1673ffffffffffffffffffffffffffffffffffffffff16815260200191505060405180910390f35b610102610290565b005b34801561011057600080fd5b506101196104df565b005b34801561012757600080fd5b506101306108d9565b604051808263ffffffff1663ffffffff16815260200191505060405180910390f35b34801561015e57600080fd5b506101676108f3565b6040518082600181111561017757fe5b60ff16815260200191505060405180910390f35b61019361090a565b005b6101c1600480360360208110156101ab57600080fd5b8101908080359060200190929190505050610b12565b005b3480156101cf57600080fd5b506101d8610cd9565b604051808263ffffffff1663ffffffff16815260200191505060405180910390f35b34801561020657600080fd5b5061020f610cf3565b6040518082815260200191505060405180910390f35b34801561023157600080fd5b5061023a610cfd565b6040518082815260200191505060405180910390f35b34801561025c57600080fd5b50610265610d07565b005b60008060009054906101000a900473ffffffffffffffffffffffffffffffffffffffff16905090565b60018081111561029c57fe5b600460009054906101000a900460ff1660018111156102b757fe5b1461032a576040517f08c379a00000000000000000000000000000000000000000000000000000000081526004018080602001828103825260178152602001807f4c6f7474657279206e6f742073746172746564206e6f7700000000000000000081525060200191505060405180910390fd5b60008090505b600260049054906101000a900463ffffffff1663ffffffff168163ffffffff16101561046e57600060058263ffffffff168154811061036b57fe5b9060005260206000200160009054906101000a900473ffffffffffffffffffffffffffffffffffffffff1690503373ffffffffffffffffffffffffffffffffffffffff168173ffffffffffffffffffffffffffffffffffffffff1614156104605760008190508073ffffffffffffffffffffffffffffffffffffffff166108fc6001549081150290604051600060405180830381858888f19350505050158015610419573d6000803e3d6000fd5b50600060068463ffffffff168154811061042f57fe5b90600052602060002090602091828204019190066101000a81548160ff0219169083151502179055505050506104dd565b508080600101915050610330565b506040517f08c379a00000000000000000000000000000000000000000000000000000000081526004018080602001828103825260138152602001807f596f752068617665206e6f74207469636b65740000000000000000000000000081525060200191505060405180910390fd5b565b6001808111156104eb57fe5b600460009054906101000a900460ff16600181111561050657fe5b14610579576040517f08c379a00000000000000000000000000000000000000000000000000000000081526004018080602001828103825260178152602001807f4c6f7474657279206e6f742073746172746564206e6f7700000000000000000081525060200191505060405180910390fd5b6000809054906101000a900473ffffffffffffffffffffffffffffffffffffffff1673ffffffffffffffffffffffffffffffffffffffff163373ffffffffffffffffffffffffffffffffffffffff161461063b576040517f08c379a00000000000000000000000000000000000000000000000000000000081526004018080602001828103825260158152602001807f4e656564206f776e6572207065726d697373696f6e000000000000000000000081525060200191505060405180910390fd5b600260009054906101000a900463ffffffff1663ffffffff16600260049054906101000a900463ffffffff1663ffffffff16146106e0576040517f08c379a00000000000000000000000000000000000000000000000000000000081526004018080602001828103825260128152602001807f5469636b657473206e6f7420736f6c646564000000000000000000000000000081525060200191505060405180910390fd5b6000600260049054906101000a900463ffffffff1663ffffffff166001540290506000600260049054906101000a900463ffffffff1663ffffffff16600142038161072757fe5b0690505b6006818154811061073857fe5b90600052602060002090602091828204019190069054906101000a900460ff1661078857600260049054906101000a900463ffffffff1663ffffffff16600142038161078057fe5b06905061072b565b60006005828154811061079757fe5b9060005260206000200160009054906101000a900473ffffffffffffffffffffffffffffffffffffffff16905060405180604001604052808273ffffffffffffffffffffffffffffffffffffffff1681526020018481525060076000600354815260200190815260200160002060008201518160000160006101000a81548173ffffffffffffffffffffffffffffffffffffffff021916908373ffffffffffffffffffffffffffffffffffffffff160217905550602082015181600101559050506000600460006101000a81548160ff0219169083600181111561087757fe5b02179055508073ffffffffffffffffffffffffffffffffffffffff167f4d54fdcc7e12c1d44e4ea1f020f7dc91110b633239123a8c185eeb8338d78e8260035485604051808381526020018281526020019250505060405180910390a2505050565b6000600260009054906101000a900463ffffffff16905090565b6000600460009054906101000a900460ff16905090565b60018081111561091657fe5b600460009054906101000a900460ff16600181111561093157fe5b146109a4576040517f08c379a00000000000000000000000000000000000000000000000000000000081526004018080602001828103825260178152602001807f4c6f7474657279206e6f742073746172746564206e6f7700000000000000000081525060200191505060405180910390fd5b600154341015610a1c576040517f08c379a00000000000000000000000000000000000000000000000000000000081526004018080602001828103825260128152602001807f4e6f7420656e6f7567687420616d6f756e74000000000000000000000000000081525060200191505060405180910390fd5b336005600260049054906101000a900463ffffffff1663ffffffff1681548110610a4257fe5b9060005260206000200160006101000a81548173ffffffffffffffffffffffffffffffffffffffff021916908373ffffffffffffffffffffffffffffffffffffffff16021790555060016006600260049054906101000a900463ffffffff1663ffffffff1681548110610ab157fe5b90600052602060002090602091828204019190066101000a81548160ff0219169083151502179055506001600260049054906101000a900463ffffffff1601600260046101000a81548163ffffffff021916908363ffffffff160217905550565b610b1a610f74565b600760008381526020019081526020016000206040518060400160405290816000820160009054906101000a900473ffffffffffffffffffffffffffffffffffffffff1673ffffffffffffffffffffffffffffffffffffffff1673ffffffffffffffffffffffffffffffffffffffff16815260200160018201548152505090503373ffffffffffffffffffffffffffffffffffffffff16816000015173ffffffffffffffffffffffffffffffffffffffff1614610c3f576040517f08c379a00000000000000000000000000000000000000000000000000000000081526004018080602001828103825260118152602001807f596f752068617665206e6f74206375736800000000000000000000000000000081525060200191505060405180910390fd5b60003390508073ffffffffffffffffffffffffffffffffffffffff166108fc83602001519081150290604051600060405180830381858888f19350505050158015610c8e573d6000803e3d6000fd5b5060076000848152602001908152602001600020600080820160006101000a81549073ffffffffffffffffffffffffffffffffffffffff021916905560018201600090555050505050565b6000600260049054906101000a900463ffffffff16905090565b6000600354905090565b6000600154905090565b6000809054906101000a900473ffffffffffffffffffffffffffffffffffffffff1673ffffffffffffffffffffffffffffffffffffffff163373ffffffffffffffffffffffffffffffffffffffff1614610dc9576040517f08c379a00000000000000000000000000000000000000000000000000000000081526004018080602001828103825260158152602001807f4e656564206f776e6572207065726d697373696f6e000000000000000000000081525060200191505060405180910390fd5b60006001811115610dd657fe5b600460009054906101000a900460ff166001811115610df157fe5b14610e64576040517f08c379a00000000000000000000000000000000000000000000000000000000081526004018080602001828103825260178152602001807f4c6f747465727920616c7265616479207374617274656400000000000000000081525060200191505060405180910390fd5b6001600460006101000a81548160ff02191690836001811115610e8357fe5b02179055506000600260046101000a81548163ffffffff021916908363ffffffff160217905550600160035401600381905550600260009054906101000a900463ffffffff1663ffffffff16604051908082528060200260200182016040528015610efd5781602001602082028038833980820191505090505b5060059080519060200190610f13929190610fa4565b50600260009054906101000a900463ffffffff1663ffffffff16604051908082528060200260200182016040528015610f5b5781602001602082028038833980820191505090505b5060069080519060200190610f7192919061102e565b50565b6040518060400160405280600073ffffffffffffffffffffffffffffffffffffffff168152602001600081525090565b82805482825590600052602060002090810192821561101d579160200282015b8281111561101c5782518260006101000a81548173ffffffffffffffffffffffffffffffffffffffff021916908373ffffffffffffffffffffffffffffffffffffffff16021790555091602001919060010190610fc4565b5b50905061102a91906110d4565b5090565b82805482825590600052602060002090601f016020900481019282156110c35791602002820160005b8382111561109457835183826101000a81548160ff0219169083151502179055509260200192600101602081600001049283019260010302611057565b80156110c15782816101000a81549060ff0219169055600101602081600001049283019260010302611094565b505b5090506110d09190611117565b5090565b61111491905b8082111561111057600081816101000a81549073ffffffffffffffffffffffffffffffffffffffff0219169055506001016110da565b5090565b90565b61114491905b8082111561114057600081816101000a81549060ff02191690555060010161111d565b5090565b9056fea2646970667358221220ca72f52d6e43db2457da46294ab0c9ba2dddcfbd3def8866db9036d08752364064736f6c63430006000033",
  "source": "pragma solidity ^0.6.0;\n\n\ncontract ChickBoom {\n\n  struct Win {\n    address addr;\n    uint cush;\n  }\n\n  event WinEvent(\n    address indexed winner,\n    uint round,\n    uint cush\n  );\n\n  modifier only_owner() {\n    require(msg.sender == owner, \"Need owner permission\");\n    _;\n  }\n\n  modifier is_lottery_started() {\n    require(lottery_state == State.Started, \"Lottery not started now\");\n    _;\n  }\n\n  enum State { Stopped, Started }\n\n  address payable private owner;\n  uint256 private ticket_price;\n  uint32 private tickets_count;\n  uint32 private sold_tickets = 0;\n  uint private round = 0;\n  State private lottery_state = State.Stopped;\n\n  address[] private players_addresses;\n  bool[] private players_states;\n  mapping (uint => Win) private winners;\n\n\n  constructor(uint32 new_tickets_count, uint256 new_ticket_price) public {\n    owner = msg.sender;\n    tickets_count = new_tickets_count;\n    ticket_price = new_ticket_price;\n  }\n\n  function start_selling() external only_owner {\n    require(lottery_state == State.Stopped, \"Lottery already started\");\n    lottery_state = State.Started;\n    sold_tickets = 0;\n    round = round+1;\n    players_addresses = new address[](tickets_count);\n    players_states = new bool[](tickets_count);\n  }\n\n  function buy_ticket() external is_lottery_started payable {\n    require(msg.value >= ticket_price, \"Not enought amount\");\n    players_addresses[sold_tickets] = msg.sender;\n    players_states[sold_tickets] = true;\n    sold_tickets = sold_tickets+1;\n  }\n\n  function reward() external is_lottery_started payable {\n    for (uint32 i=0; i<sold_tickets; i++) {\n      address reward_addr = players_addresses[i];\n      if (reward_addr == msg.sender) {\n        address payable player_addres = address(uint160(reward_addr));\n        player_addres.transfer(ticket_price);\n        players_states[i] = false;\n        return;\n      }\n    }\n    revert(\"You have not ticket\");\n  }\n\n  function lets_win() external is_lottery_started only_owner {\n    require(sold_tickets == tickets_count, \"Tickets not solded\");\n    uint cush = ticket_price * sold_tickets;\n    uint winner_id = (block.timestamp-1)%(sold_tickets);\n    while (!players_states[winner_id]) {\n      winner_id = (block.timestamp-1)%(sold_tickets);\n    }\n    address winner_address = players_addresses[winner_id];\n    winners[round] = Win({addr: winner_address, cush: cush});\n    lottery_state = State.Stopped;\n    emit WinEvent(winner_address, round, cush);\n  }\n\n  function get_cush(uint _round) external payable {\n    Win memory winner = winners[_round];\n    require(winner.addr == msg.sender, \"You have not cush\");\n    address payable winner_address = address(uint160(msg.sender));\n    winner_address.transfer(winner.cush);\n    delete winners[_round];\n  }\n\n  function get_lottery_state() public view returns (State) {\n    return lottery_state;\n  }\n\n  function get_ticket_price() public view returns (uint256) {\n    return ticket_price;\n  }\n\n  function get_sold_tickets() public view returns (uint32) {\n    return sold_tickets;\n  }\n\n  function get_tickets_count() public view returns (uint32) {\n    return tickets_count;\n  }\n\n  function get_owner() public view returns (address) {\n    return owner;\n  }\n\n  function get_round() public view returns (uint) {\n    return round;\n  }\n\n  fallback() external payable {}\n}\n",
  "sourcePath": "/home/vladislav/Projects/BlockchainProjects/ChickBoom/contracts/ChickBoom.sol",
  "compiler": {
    "name": "solc",
    "version": "0.6.0+commit.26b70077.Emscripten.clang"
  },
  "schemaVersion": "3.0.23",
  "updatedAt": "2020-02-10T14:56:44.132Z",
  "devdoc": {
    "methods": {}
  },
  "userdoc": {
    "methods": {}
  }
}