{
  "contractName": "ChickBoom",
  "abi": [
    {
      "inputs": [],
      "payable": false,
      "stateMutability": "nonpayable",
      "type": "constructor"
    },
    {
      "constant": false,
      "inputs": [
        {
          "internalType": "uint32",
          "name": "new_price",
          "type": "uint32"
        }
      ],
      "name": "change_ticket_price",
      "outputs": [],
      "payable": false,
      "stateMutability": "nonpayable",
      "type": "function"
    },
    {
      "constant": false,
      "inputs": [
        {
          "internalType": "uint32",
          "name": "new_count",
          "type": "uint32"
        }
      ],
      "name": "change_tickets_count",
      "outputs": [],
      "payable": false,
      "stateMutability": "nonpayable",
      "type": "function"
    },
    {
      "constant": false,
      "inputs": [],
      "name": "start_lottery",
      "outputs": [],
      "payable": false,
      "stateMutability": "nonpayable",
      "type": "function"
    },
    {
      "constant": false,
      "inputs": [],
      "name": "reward",
      "outputs": [],
      "payable": false,
      "stateMutability": "nonpayable",
      "type": "function"
    },
    {
      "constant": false,
      "inputs": [],
      "name": "start_tickets_selling",
      "outputs": [],
      "payable": false,
      "stateMutability": "nonpayable",
      "type": "function"
    },
    {
      "constant": false,
      "inputs": [],
      "name": "buy_ticket",
      "outputs": [],
      "payable": true,
      "stateMutability": "payable",
      "type": "function"
    },
    {
      "constant": true,
      "inputs": [],
      "name": "get_lottery_state",
      "outputs": [
        {
          "internalType": "uint8",
          "name": "",
          "type": "uint8"
        }
      ],
      "payable": false,
      "stateMutability": "view",
      "type": "function"
    },
    {
      "constant": true,
      "inputs": [],
      "name": "get_ticket_price",
      "outputs": [
        {
          "internalType": "uint32",
          "name": "",
          "type": "uint32"
        }
      ],
      "payable": false,
      "stateMutability": "view",
      "type": "function"
    },
    {
      "constant": true,
      "inputs": [],
      "name": "get_tickets_count",
      "outputs": [
        {
          "internalType": "uint32",
          "name": "",
          "type": "uint32"
        }
      ],
      "payable": false,
      "stateMutability": "view",
      "type": "function"
    }
  ],
  "bytecode": "0x608060405260008060006101000a81548160ff021916908360ff1602179055506001600060016101000a81548160ff021916908360ff1602179055506000809054906101000a900460ff166000601e6101000a81548160ff021916908360ff16021790555034801561007057600080fd5b5033600060026101000a81548173ffffffffffffffffffffffffffffffffffffffff021916908373ffffffffffffffffffffffffffffffffffffffff1602179055506001600060166101000a81548163ffffffff021916908363ffffffff1602179055506103e86000601a6101000a81548163ffffffff021916908363ffffffff1602179055506000601a9054906101000a900463ffffffff1663ffffffff1660405190808252806020026020018201604052801561013e5781602001602082028038833980820191505090505b506001908051906020019061015492919061015a565b50610227565b8280548282559060005260206000209081019282156101d3579160200282015b828111156101d25782518260006101000a81548173ffffffffffffffffffffffffffffffffffffffff021916908373ffffffffffffffffffffffffffffffffffffffff1602179055509160200191906001019061017a565b5b5090506101e091906101e4565b5090565b61022491905b8082111561022057600081816101000a81549073ffffffffffffffffffffffffffffffffffffffff0219169055506001016101ea565b5090565b90565b610d10806102366000396000f3fe6080604052600436106100865760003560e01c806364e4c5741161005957806364e4c5741461014b578063686417d31461018c578063a78cb47c14610196578063eb8e9668146101ad578063ee44abb2146101e457610086565b806302b00edd1461008b578063228cb733146100cc5780633c41f7a4146100e35780634e5286321461011a575b600080fd5b34801561009757600080fd5b506100ca600480360360208110156100ae57600080fd5b81019080803563ffffffff1690602001909291905050506101fb565b005b3480156100d857600080fd5b506100e1610311565b005b3480156100ef57600080fd5b506100f86104f2565b604051808263ffffffff1663ffffffff16815260200191505060405180910390f35b34801561012657600080fd5b5061012f61050b565b604051808260ff1660ff16815260200191505060405180910390f35b34801561015757600080fd5b5061018a6004803603602081101561016e57600080fd5b81019080803563ffffffff169060200190929190505050610521565b005b610194610695565b005b3480156101a257600080fd5b506101ab61092b565b005b3480156101b957600080fd5b506101c2610a1a565b604051808263ffffffff1663ffffffff16815260200191505060405180910390f35b3480156101f057600080fd5b506101f9610a33565b005b600060029054906101000a900473ffffffffffffffffffffffffffffffffffffffff1673ffffffffffffffffffffffffffffffffffffffff163373ffffffffffffffffffffffffffffffffffffffff16146102be576040517f08c379a000000000000000000000000000000000000000000000000000000000815260040180806020018281038252600c8152602001807f416363657373206572726f72000000000000000000000000000000000000000081525060200191505060405180910390fd5b6000809054906101000a900460ff1660ff166000601e9054906101000a900460ff1660ff16146102ed57600080fd5b80600060166101000a81548163ffffffff021916908363ffffffff16021790555050565b600060029054906101000a900473ffffffffffffffffffffffffffffffffffffffff1673ffffffffffffffffffffffffffffffffffffffff163373ffffffffffffffffffffffffffffffffffffffff16146103d4576040517f08c379a000000000000000000000000000000000000000000000000000000000815260040180806020018281038252600c8152602001807f416363657373206572726f72000000000000000000000000000000000000000081525060200191505060405180910390fd5b600060019054906101000a900460ff1660ff166000601e9054906101000a900460ff1660ff161461040457600080fd5b60008090505b6001805490508163ffffffff1610156104c65760018163ffffffff168154811061043057fe5b9060005260206000200160009054906101000a900473ffffffffffffffffffffffffffffffffffffffff1673ffffffffffffffffffffffffffffffffffffffff166108fc600060169054906101000a900463ffffffff1663ffffffff169081150290604051600060405180830381858888f193505050501580156104b8573d6000803e3d6000fd5b50808060010191505061040a565b506000809054906101000a900460ff166000601e6101000a81548160ff021916908360ff160217905550565b600080601a9054906101000a900463ffffffff16905090565b600080601e9054906101000a900460ff16905090565b600060029054906101000a900473ffffffffffffffffffffffffffffffffffffffff1673ffffffffffffffffffffffffffffffffffffffff163373ffffffffffffffffffffffffffffffffffffffff16146105e4576040517f08c379a000000000000000000000000000000000000000000000000000000000815260040180806020018281038252600c8152602001807f416363657373206572726f72000000000000000000000000000000000000000081525060200191505060405180910390fd5b6000809054906101000a900460ff1660ff166000601e9054906101000a900460ff1660ff161461061357600080fd5b806000601a6101000a81548163ffffffff021916908363ffffffff1602179055506000601a9054906101000a900463ffffffff1663ffffffff1660405190808252806020026020018201604052801561067b5781602001602082028038833980820191505090505b5060019080519060200190610691929190610c0e565b5050565b600060019054906101000a900460ff1660ff166000601e9054906101000a900460ff1660ff161461072e576040517f08c379a00000000000000000000000000000000000000000000000000000000081526004018080602001828103825260178152602001807f5469636b657473206e6f742073656c6c696e67206e6f7700000000000000000081525060200191505060405180910390fd5b6000601a9054906101000a900463ffffffff1663ffffffff16600180549050106107c0576040517f08c379a00000000000000000000000000000000000000000000000000000000081526004018080602001828103825260108152602001807f416c6c207469636b6574732073656c6c0000000000000000000000000000000081525060200191505060405180910390fd5b600060169054906101000a900463ffffffff1663ffffffff1634101561084e576040517f08c379a00000000000000000000000000000000000000000000000000000000081526004018080602001828103825260128152602001807f4e6f7420656e6f7567687420616d6f756e74000000000000000000000000000081525060200191505060405180910390fd5b600060029054906101000a900473ffffffffffffffffffffffffffffffffffffffff1673ffffffffffffffffffffffffffffffffffffffff166108fc600060169054906101000a900463ffffffff1663ffffffff169081150290604051600060405180830381858888f193505050501580156108ce573d6000803e3d6000fd5b503360018080549050815481106108e157fe5b9060005260206000200160006101000a81548173ffffffffffffffffffffffffffffffffffffffff021916908373ffffffffffffffffffffffffffffffffffffffff160217905550565b600060029054906101000a900473ffffffffffffffffffffffffffffffffffffffff1673ffffffffffffffffffffffffffffffffffffffff163373ffffffffffffffffffffffffffffffffffffffff16146109ee576040517f08c379a000000000000000000000000000000000000000000000000000000000815260040180806020018281038252600c8152602001807f416363657373206572726f72000000000000000000000000000000000000000081525060200191505060405180910390fd5b600060019054906101000a900460ff166000601e6101000a81548160ff021916908360ff160217905550565b60008060169054906101000a900463ffffffff16905090565b600060029054906101000a900473ffffffffffffffffffffffffffffffffffffffff1673ffffffffffffffffffffffffffffffffffffffff163373ffffffffffffffffffffffffffffffffffffffff1614610af6576040517f08c379a000000000000000000000000000000000000000000000000000000000815260040180806020018281038252600c8152602001807f416363657373206572726f72000000000000000000000000000000000000000081525060200191505060405180910390fd5b600060019054906101000a900460ff1660ff166000601e9054906101000a900460ff1660ff1614610b2657600080fd5b6000600180549050600060169054906101000a900463ffffffff1663ffffffff1602905060006001808054905003434060001c81610b6057fe5b06905060018181548110610b7057fe5b9060005260206000200160009054906101000a900473ffffffffffffffffffffffffffffffffffffffff1673ffffffffffffffffffffffffffffffffffffffff166108fc839081150290604051600060405180830381858888f19350505050158015610be0573d6000803e3d6000fd5b506000809054906101000a900460ff166000601e6101000a81548160ff021916908360ff1602179055505050565b828054828255906000526020600020908101928215610c87579160200282015b82811115610c865782518260006101000a81548173ffffffffffffffffffffffffffffffffffffffff021916908373ffffffffffffffffffffffffffffffffffffffff16021790555091602001919060010190610c2e565b5b509050610c949190610c98565b5090565b610cd891905b80821115610cd457600081816101000a81549073ffffffffffffffffffffffffffffffffffffffff021916905550600101610c9e565b5090565b9056fea265627a7a723158202d200033a561ff9655584f5354d2a9c7c605334884c1a3b2b0063488d334fd5264736f6c634300050c0032",
  "source": "pragma solidity ^0.5.12;\n\n\ncontract ChickBoom {\n\n    uint8 private STATE_NOT_ACTIVE = 0;\n    uint8 private STATE_TICKET_SELLING = 1;\n\n    address payable private _owner;\n    uint32 private _ticket_price; //in\n    uint32 private _tickets_count;\n    uint8 private _lottery_state = STATE_NOT_ACTIVE;\n\n    address payable[] private _players;\n\n    modifier only_owner() {\n        require(msg.sender == _owner, \"Access error\");\n        _;\n    }\n\n    constructor() public {\n        _owner = msg.sender;\n        _ticket_price = 1;\n        _tickets_count = 1000;\n        _players = new address payable[](_tickets_count);\n    }\n\n    function change_ticket_price(uint32 new_price) public only_owner {\n        require(_lottery_state == STATE_NOT_ACTIVE);\n        _ticket_price = new_price;\n    }\n\n    function change_tickets_count(uint32 new_count) public only_owner {\n        require(_lottery_state == STATE_NOT_ACTIVE);\n        _tickets_count = new_count;\n        _players = new address payable[](_tickets_count);\n    }\n\n    function start_lottery() public only_owner {\n        require(_lottery_state == STATE_TICKET_SELLING);\n        uint cush = _ticket_price * _players.length;\n        uint winner_id = uint(blockhash(block.number))%(_players.length-1);\n        _players[winner_id].transfer(cush);\n        _lottery_state = STATE_NOT_ACTIVE;\n    }\n\n    function reward() public only_owner {\n        require(_lottery_state == STATE_TICKET_SELLING);\n        for (uint32 i=0; i<_players.length; i++) {\n            _players[i].transfer(_ticket_price);\n        }\n         _lottery_state = STATE_NOT_ACTIVE;\n    }\n\n    function start_tickets_selling() public only_owner {\n        _lottery_state = STATE_TICKET_SELLING;\n    }\n\n    function buy_ticket() public payable {\n        require(_lottery_state == STATE_TICKET_SELLING, \"Tickets not selling now\");\n        require(_players.length < _tickets_count, \"All tickets sell\");\n        require(msg.value >= _ticket_price, \"Not enought amount\");\n        _owner.transfer(_ticket_price);\n        _players[_players.length] = msg.sender;\n    }\n\n    function get_lottery_state() public view returns (uint8) {\n        return _lottery_state;\n    }\n\n    function get_ticket_price() public view returns (uint32) {\n        return _ticket_price;\n    }\n\n    function get_tickets_count() public view returns (uint32) {\n        return _tickets_count;\n    }\n}\n",
  "sourcePath": "/home/vladislav/Projects/BlockchainProjects/ChickBoom/contracts/ChickBoom.sol",
  "compiler": {
    "name": "solc",
    "version": "0.5.12+commit.7709ece9.Emscripten.clang"
  },
  "schemaVersion": "3.0.17",
  "updatedAt": "2019-11-06T16:10:05.110Z",
  "devdoc": {
    "methods": {}
  },
  "userdoc": {
    "methods": {}
  }
}